{
    "_format": "hh-sol-artifact-1",
    "contractName": "MyEpicNFT",
    "sourceName": "contracts/MyEpicNFT.sol",
    "abi": [
        {
            "inputs": [],
            "stateMutability": "nonpayable",
            "type": "constructor"
        },
        {
            "anonymous": false,
            "inputs": [
                {
                    "indexed": true,
                    "internalType": "address",
                    "name": "owner",
                    "type": "address"
                },
                {
                    "indexed": true,
                    "internalType": "address",
                    "name": "approved",
                    "type": "address"
                },
                {
                    "indexed": true,
                    "internalType": "uint256",
                    "name": "tokenId",
                    "type": "uint256"
                }
            ],
            "name": "Approval",
            "type": "event"
        },
        {
            "anonymous": false,
            "inputs": [
                {
                    "indexed": true,
                    "internalType": "address",
                    "name": "owner",
                    "type": "address"
                },
                {
                    "indexed": true,
                    "internalType": "address",
                    "name": "operator",
                    "type": "address"
                },
                {
                    "indexed": false,
                    "internalType": "bool",
                    "name": "approved",
                    "type": "bool"
                }
            ],
            "name": "ApprovalForAll",
            "type": "event"
        },
        {
            "anonymous": false,
            "inputs": [
                {
                    "indexed": false,
                    "internalType": "address",
                    "name": "sender",
                    "type": "address"
                },
                {
                    "indexed": false,
                    "internalType": "uint256",
                    "name": "newItemId",
                    "type": "uint256"
                }
            ],
            "name": "NewEpicNFTMinted",
            "type": "event"
        },
        {
            "anonymous": false,
            "inputs": [
                {
                    "indexed": true,
                    "internalType": "address",
                    "name": "from",
                    "type": "address"
                },
                {
                    "indexed": true,
                    "internalType": "address",
                    "name": "to",
                    "type": "address"
                },
                {
                    "indexed": true,
                    "internalType": "uint256",
                    "name": "tokenId",
                    "type": "uint256"
                }
            ],
            "name": "Transfer",
            "type": "event"
        },
        {
            "inputs": [
                {
                    "internalType": "address",
                    "name": "to",
                    "type": "address"
                },
                {
                    "internalType": "uint256",
                    "name": "tokenId",
                    "type": "uint256"
                }
            ],
            "name": "approve",
            "outputs": [],
            "stateMutability": "nonpayable",
            "type": "function"
        },
        {
            "inputs": [
                {
                    "internalType": "address",
                    "name": "owner",
                    "type": "address"
                }
            ],
            "name": "balanceOf",
            "outputs": [
                {
                    "internalType": "uint256",
                    "name": "",
                    "type": "uint256"
                }
            ],
            "stateMutability": "view",
            "type": "function"
        },
        {
            "inputs": [
                {
                    "internalType": "uint256",
                    "name": "tokenId",
                    "type": "uint256"
                }
            ],
            "name": "getApproved",
            "outputs": [
                {
                    "internalType": "address",
                    "name": "",
                    "type": "address"
                }
            ],
            "stateMutability": "view",
            "type": "function"
        },
        {
            "inputs": [
                {
                    "internalType": "address",
                    "name": "owner",
                    "type": "address"
                },
                {
                    "internalType": "address",
                    "name": "operator",
                    "type": "address"
                }
            ],
            "name": "isApprovedForAll",
            "outputs": [
                {
                    "internalType": "bool",
                    "name": "",
                    "type": "bool"
                }
            ],
            "stateMutability": "view",
            "type": "function"
        },
        {
            "inputs": [],
            "name": "makeAnEpicNFT",
            "outputs": [],
            "stateMutability": "nonpayable",
            "type": "function"
        },
        {
            "inputs": [],
            "name": "name",
            "outputs": [
                {
                    "internalType": "string",
                    "name": "",
                    "type": "string"
                }
            ],
            "stateMutability": "view",
            "type": "function"
        },
        {
            "inputs": [
                {
                    "internalType": "uint256",
                    "name": "tokenId",
                    "type": "uint256"
                }
            ],
            "name": "ownerOf",
            "outputs": [
                {
                    "internalType": "address",
                    "name": "",
                    "type": "address"
                }
            ],
            "stateMutability": "view",
            "type": "function"
        },
        {
            "inputs": [
                {
                    "internalType": "uint256",
                    "name": "tokenId",
                    "type": "uint256"
                },
                {
                    "internalType": "string[]",
                    "name": "words",
                    "type": "string[]"
                },
                {
                    "internalType": "string",
                    "name": "randomWord",
                    "type": "string"
                }
            ],
            "name": "pickRandomWord",
            "outputs": [
                {
                    "internalType": "string",
                    "name": "",
                    "type": "string"
                }
            ],
            "stateMutability": "view",
            "type": "function"
        },
        {
            "inputs": [
                {
                    "internalType": "address",
                    "name": "from",
                    "type": "address"
                },
                {
                    "internalType": "address",
                    "name": "to",
                    "type": "address"
                },
                {
                    "internalType": "uint256",
                    "name": "tokenId",
                    "type": "uint256"
                }
            ],
            "name": "safeTransferFrom",
            "outputs": [],
            "stateMutability": "nonpayable",
            "type": "function"
        },
        {
            "inputs": [
                {
                    "internalType": "address",
                    "name": "from",
                    "type": "address"
                },
                {
                    "internalType": "address",
                    "name": "to",
                    "type": "address"
                },
                {
                    "internalType": "uint256",
                    "name": "tokenId",
                    "type": "uint256"
                },
                {
                    "internalType": "bytes",
                    "name": "_data",
                    "type": "bytes"
                }
            ],
            "name": "safeTransferFrom",
            "outputs": [],
            "stateMutability": "nonpayable",
            "type": "function"
        },
        {
            "inputs": [
                {
                    "internalType": "address",
                    "name": "operator",
                    "type": "address"
                },
                {
                    "internalType": "bool",
                    "name": "approved",
                    "type": "bool"
                }
            ],
            "name": "setApprovalForAll",
            "outputs": [],
            "stateMutability": "nonpayable",
            "type": "function"
        },
        {
            "inputs": [
                {
                    "internalType": "bytes4",
                    "name": "interfaceId",
                    "type": "bytes4"
                }
            ],
            "name": "supportsInterface",
            "outputs": [
                {
                    "internalType": "bool",
                    "name": "",
                    "type": "bool"
                }
            ],
            "stateMutability": "view",
            "type": "function"
        },
        {
            "inputs": [],
            "name": "symbol",
            "outputs": [
                {
                    "internalType": "string",
                    "name": "",
                    "type": "string"
                }
            ],
            "stateMutability": "view",
            "type": "function"
        },
        {
            "inputs": [
                {
                    "internalType": "uint256",
                    "name": "tokenId",
                    "type": "uint256"
                }
            ],
            "name": "tokenURI",
            "outputs": [
                {
                    "internalType": "string",
                    "name": "",
                    "type": "string"
                }
            ],
            "stateMutability": "view",
            "type": "function"
        },
        {
            "inputs": [
                {
                    "internalType": "address",
                    "name": "from",
                    "type": "address"
                },
                {
                    "internalType": "address",
                    "name": "to",
                    "type": "address"
                },
                {
                    "internalType": "uint256",
                    "name": "tokenId",
                    "type": "uint256"
                }
            ],
            "name": "transferFrom",
            "outputs": [],
            "stateMutability": "nonpayable",
            "type": "function"
        }
    ],
    "bytecode": "0x608060405260405180610160016040528061012f8152602001620049fd61012f9139600890805190602001906200003892919062000b58565b50604051806101c001604052806040518060400160405280600681526020017f4c6542726f6e000000000000000000000000000000000000000000000000000081525081526020016040518060400160405280600681526020017f447572616e74000000000000000000000000000000000000000000000000000081525081526020016040518060400160405280600581526020017f437572727900000000000000000000000000000000000000000000000000000081525081526020016040518060400160405280600581526020017f4b7972696500000000000000000000000000000000000000000000000000000081525081526020016040518060400160405280600681526020017f4d6f72616e74000000000000000000000000000000000000000000000000000081525081526020016040518060400160405280600d81526020017f416e7465746f6b6f756e6d706f0000000000000000000000000000000000000081525081526020016040518060400160405280600881526020017f54686f6d70736f6e00000000000000000000000000000000000000000000000081525081526020016040518060400160405280600581526020017f506f6f6c6500000000000000000000000000000000000000000000000000000081525081526020016040518060400160405280600681526020017f446f6e636963000000000000000000000000000000000000000000000000000081525081526020016040518060400160405280600681526020017f48617264656e000000000000000000000000000000000000000000000000000081525081526020016040518060400160405280600981526020017f5765737462726f6f6b000000000000000000000000000000000000000000000081525081526020016040518060400160405280600581526020017f446176697300000000000000000000000000000000000000000000000000000081525081526020016040518060400160405280600581526020017f546174756d00000000000000000000000000000000000000000000000000000081525081526020016040518060400160405280600681526020017f4275746c65720000000000000000000000000000000000000000000000000000815250815250600990600e6200038f92919062000be9565b50604051806101a001604052806040518060400160405280600781526020017f466572726172690000000000000000000000000000000000000000000000000081525081526020016040518060400160405280600581526020017f42656e7a6f00000000000000000000000000000000000000000000000000000081525081526020016040518060400160405280600a81526020017f566f6c6b73776167656e0000000000000000000000000000000000000000000081525081526020016040518060400160405280600681526020017f4e697373616e000000000000000000000000000000000000000000000000000081525081526020016040518060400160405280600681526020017f546f796f7461000000000000000000000000000000000000000000000000000081525081526020016040518060400160405280600581526020017f5465736c6100000000000000000000000000000000000000000000000000000081525081526020016040518060400160405280600381526020017f424d57000000000000000000000000000000000000000000000000000000000081525081526020016040518060400160405280600581526020017f486f6e646100000000000000000000000000000000000000000000000000000081525081526020016040518060400160405280600681526020017f50616a65726f000000000000000000000000000000000000000000000000000081525081526020016040518060400160405280600481526020017f4a6565700000000000000000000000000000000000000000000000000000000081525081526020016040518060400160405280600481526020017f417564690000000000000000000000000000000000000000000000000000000081525081526020016040518060400160405280600a81526020017f4d6974737562697368690000000000000000000000000000000000000000000081525081526020016040518060400160405280600681526020017f5375626172750000000000000000000000000000000000000000000000000000815250815250600a90600d620006ab92919062000c50565b506040518061018001604052806040518060400160405280600581526020017f50697a7a6100000000000000000000000000000000000000000000000000000081525081526020016040518060400160405280600681526020017f427572676572000000000000000000000000000000000000000000000000000081525081526020016040518060400160405280600581526020017f436869707300000000000000000000000000000000000000000000000000000081525081526020016040518060400160405280600681526020017f486f74646f67000000000000000000000000000000000000000000000000000081525081526020016040518060400160405280600581526020017f5374616b6500000000000000000000000000000000000000000000000000000081525081526020016040518060400160405280600781526020017f436861706174690000000000000000000000000000000000000000000000000081525081526020016040518060400160405280600781526020017f4d61646f6e646f0000000000000000000000000000000000000000000000000081525081526020016040518060400160405280600781526020017f4d616e64617a690000000000000000000000000000000000000000000000000081525081526020016040518060400160405280600581526020017f5567616c6900000000000000000000000000000000000000000000000000000081525081526020016040518060400160405280600481526020017f526963650000000000000000000000000000000000000000000000000000000081525081526020016040518060400160405280600481526020017f426565660000000000000000000000000000000000000000000000000000000081525081526020016040518060400160405280600481526020017f506f726b00000000000000000000000000000000000000000000000000000000815250815250600b90600c6200098c92919062000cb7565b503480156200099a57600080fd5b506040518060400160405280600981526020017f5371756172654e465400000000000000000000000000000000000000000000008152506040518060400160405280600681526020017f5351554152450000000000000000000000000000000000000000000000000000815250816000908051906020019062000a1f92919062000b58565b50806001908051906020019062000a3892919062000b58565b50505062000a866040518060400160405280601781526020017f54686973206973206d79204e465420636f6e747261637400000000000000000081525062000a8c60201b620010b71760201c565b62000ed8565b62000b2c8160405160240162000aa3919062000dec565b6040516020818303038152906040527f41304fac000000000000000000000000000000000000000000000000000000007bffffffffffffffffffffffffffffffffffffffffffffffffffffffff19166020820180517bffffffffffffffffffffffffffffffffffffffffffffffffffffffff838183161783525050505062000b2f60201b60201c565b50565b60008151905060006a636f6e736f6c652e6c6f679050602083016000808483855afa5050505050565b82805462000b669062000e62565b90600052602060002090601f01602090048101928262000b8a576000855562000bd6565b82601f1062000ba557805160ff191683800117855562000bd6565b8280016001018555821562000bd6579182015b8281111562000bd557825182559160200191906001019062000bb8565b5b50905062000be5919062000d1e565b5090565b82805482825590600052602060002090810192821562000c3d579160200282015b8281111562000c3c57825182908051906020019062000c2b92919062000b58565b509160200191906001019062000c0a565b5b50905062000c4c919062000d3d565b5090565b82805482825590600052602060002090810192821562000ca4579160200282015b8281111562000ca357825182908051906020019062000c9292919062000b58565b509160200191906001019062000c71565b5b50905062000cb3919062000d3d565b5090565b82805482825590600052602060002090810192821562000d0b579160200282015b8281111562000d0a57825182908051906020019062000cf992919062000b58565b509160200191906001019062000cd8565b5b50905062000d1a919062000d3d565b5090565b5b8082111562000d3957600081600090555060010162000d1f565b5090565b5b8082111562000d61576000818162000d57919062000d65565b5060010162000d3e565b5090565b50805462000d739062000e62565b6000825580601f1062000d87575062000da8565b601f01602090049060005260206000209081019062000da7919062000d1e565b5b50565b600062000db88262000e10565b62000dc4818562000e1b565b935062000dd681856020860162000e2c565b62000de18162000ec7565b840191505092915050565b6000602082019050818103600083015262000e08818462000dab565b905092915050565b600081519050919050565b600082825260208201905092915050565b60005b8381101562000e4c57808201518184015260208101905062000e2f565b8381111562000e5c576000848401525b50505050565b6000600282049050600182168062000e7b57607f821691505b6020821081141562000e925762000e9162000e98565b5b50919050565b7f4e487b7100000000000000000000000000000000000000000000000000000000600052602260045260246000fd5b6000601f19601f8301169050919050565b613b158062000ee86000396000f3fe608060405234801561001057600080fd5b50600436106100f55760003560e01c806370a0823111610097578063b88d4fde11610066578063b88d4fde14610296578063c87b56dd146102b2578063de9d132f146102e2578063e985e9c5146102ec576100f5565b806370a08231146101fc57806395d89b411461022c578063a0f4312e1461024a578063a22cb4651461027a576100f5565b8063095ea7b3116100d3578063095ea7b31461017857806323b872dd1461019457806342842e0e146101b05780636352211e146101cc576100f5565b806301ffc9a7146100fa57806306fdde031461012a578063081812fc14610148575b600080fd5b610114600480360381019061010f91906125fb565b61031c565b6040516101219190612cfa565b60405180910390f35b6101326103fe565b60405161013f9190612d15565b60405180910390f35b610162600480360381019061015d919061264d565b610490565b60405161016f9190612c6a565b60405180910390f35b610192600480360381019061018d91906125bf565b610515565b005b6101ae60048036038101906101a991906124b9565b61062d565b005b6101ca60048036038101906101c591906124b9565b61068d565b005b6101e660048036038101906101e1919061264d565b6106ad565b6040516101f39190612c6a565b60405180910390f35b61021660048036038101906102119190612454565b61075f565b6040516102239190612f75565b60405180910390f35b610234610817565b6040516102419190612d15565b60405180910390f35b610264600480360381019061025f9190612676565b6108a9565b6040516102719190612d15565b60405180910390f35b610294600480360381019061028f9190612583565b61093b565b005b6102b060048036038101906102ab9190612508565b610951565b005b6102cc60048036038101906102c7919061264d565b6109b3565b6040516102d99190612d15565b60405180910390f35b6102ea610b05565b005b6103066004803603810190610301919061247d565b611023565b6040516103139190612cfa565b60405180910390f35b60007f80ac58cd000000000000000000000000000000000000000000000000000000007bffffffffffffffffffffffffffffffffffffffffffffffffffffffff1916827bffffffffffffffffffffffffffffffffffffffffffffffffffffffff191614806103e757507f5b5e139f000000000000000000000000000000000000000000000000000000007bffffffffffffffffffffffffffffffffffffffffffffffffffffffff1916827bffffffffffffffffffffffffffffffffffffffffffffffffffffffff1916145b806103f757506103f682611150565b5b9050919050565b60606000805461040d90613266565b80601f016020809104026020016040519081016040528092919081815260200182805461043990613266565b80156104865780601f1061045b57610100808354040283529160200191610486565b820191906000526020600020905b81548152906001019060200180831161046957829003601f168201915b5050505050905090565b600061049b826111ba565b6104da576040517f08c379a00000000000000000000000000000000000000000000000000000000081526004016104d190612ef5565b60405180910390fd5b6004600083815260200190815260200160002060009054906101000a900473ffffffffffffffffffffffffffffffffffffffff169050919050565b6000610520826106ad565b90508073ffffffffffffffffffffffffffffffffffffffff168373ffffffffffffffffffffffffffffffffffffffff161415610591576040517f08c379a000000000000000000000000000000000000000000000000000000000815260040161058890612f35565b60405180910390fd5b8073ffffffffffffffffffffffffffffffffffffffff166105b0611226565b73ffffffffffffffffffffffffffffffffffffffff1614806105df57506105de816105d9611226565b611023565b5b61061e576040517f08c379a000000000000000000000000000000000000000000000000000000000815260040161061590612e35565b60405180910390fd5b610628838361122e565b505050565b61063e610638611226565b826112e7565b61067d576040517f08c379a000000000000000000000000000000000000000000000000000000000815260040161067490612f55565b60405180910390fd5b6106888383836113c5565b505050565b6106a883838360405180602001604052806000815250610951565b505050565b6000806002600084815260200190815260200160002060009054906101000a900473ffffffffffffffffffffffffffffffffffffffff169050600073ffffffffffffffffffffffffffffffffffffffff168173ffffffffffffffffffffffffffffffffffffffff161415610756576040517f08c379a000000000000000000000000000000000000000000000000000000000815260040161074d90612e75565b60405180910390fd5b80915050919050565b60008073ffffffffffffffffffffffffffffffffffffffff168273ffffffffffffffffffffffffffffffffffffffff1614156107d0576040517f08c379a00000000000000000000000000000000000000000000000000000000081526004016107c790612e55565b60405180910390fd5b600360008373ffffffffffffffffffffffffffffffffffffffff1673ffffffffffffffffffffffffffffffffffffffff168152602001908152602001600020549050919050565b60606001805461082690613266565b80601f016020809104026020016040519081016040528092919081815260200182805461085290613266565b801561089f5780601f106108745761010080835404028352916020019161089f565b820191906000526020600020905b81548152906001019060200180831161088257829003601f168201915b5050505050905090565b606060006108df836108ba8761162c565b6040516020016108cb929190612b5d565b6040516020818303038152906040526117d9565b90508351816108ee9190613312565b9050838181518110610929577f4e487b7100000000000000000000000000000000000000000000000000000000600052603260045260246000fd5b60200260200101519150509392505050565b61094d610946611226565b838361180c565b5050565b61096261095c611226565b836112e7565b6109a1576040517f08c379a000000000000000000000000000000000000000000000000000000000815260040161099890612f55565b60405180910390fd5b6109ad84848484611979565b50505050565b60606109be826111ba565b6109fd576040517f08c379a00000000000000000000000000000000000000000000000000000000081526004016109f490612ed5565b60405180910390fd5b6000600660008481526020019081526020016000208054610a1d90613266565b80601f0160208091040260200160405190810160405280929190818152602001828054610a4990613266565b8015610a965780601f10610a6b57610100808354040283529160200191610a96565b820191906000526020600020905b815481529060010190602001808311610a7957829003601f168201915b505050505090506000610aa76119d5565b9050600081511415610abd578192505050610b00565b600082511115610af2578082604051602001610ada929190612b5d565b60405160208183030381529060405292505050610b00565b610afb846119ec565b925050505b919050565b6000610b116007611a93565b90506000610c26826009805480602002602001604051908101604052809291908181526020016000905b82821015610be7578382906000526020600020018054610b5a90613266565b80601f0160208091040260200160405190810160405280929190818152602001828054610b8690613266565b8015610bd35780601f10610ba857610100808354040283529160200191610bd3565b820191906000526020600020905b815481529060010190602001808311610bb657829003601f168201915b505050505081526020019060010190610b3b565b505050506040518060400160405280600a81526020017f46495253545f574f5244000000000000000000000000000000000000000000008152506108a9565b90506000610d3b83600a805480602002602001604051908101604052809291908181526020016000905b82821015610cfc578382906000526020600020018054610c6f90613266565b80601f0160208091040260200160405190810160405280929190818152602001828054610c9b90613266565b8015610ce85780601f10610cbd57610100808354040283529160200191610ce8565b820191906000526020600020905b815481529060010190602001808311610ccb57829003601f168201915b505050505081526020019060010190610c50565b505050506040518060400160405280600b81526020017f5345434f4e445f574f52440000000000000000000000000000000000000000008152506108a9565b90506000610e5084600b805480602002602001604051908101604052809291908181526020016000905b82821015610e11578382906000526020600020018054610d8490613266565b80601f0160208091040260200160405190810160405280929190818152602001828054610db090613266565b8015610dfd5780601f10610dd257610100808354040283529160200191610dfd565b820191906000526020600020905b815481529060010190602001808311610de057829003601f168201915b505050505081526020019060010190610d65565b505050506040518060400160405280600a81526020017f54484952445f574f5244000000000000000000000000000000000000000000008152506108a9565b90506000838383604051602001610e6993929190612b81565b60405160208183030381529060405290506000600882604051602001610e90929190612bb2565b60405160208183030381529060405290506000610ed583610eb084611aa1565b604051602001610ec1929190612c03565b604051602081830303815290604052611aa1565b9050600081604051602001610eea9190612c48565b6040516020818303038152906040529050610f396040518060400160405280600e81526020017f0a2d2d2d2d2d2d2d2d2d2d2d2d2d0000000000000000000000000000000000008152506110b7565b610f6181604051602001610f4d9190612be1565b6040516020818303038152906040526110b7565b610f9f6040518060400160405280600e81526020017f2d2d2d2d2d2d2d2d2d2d2d2d2d0a0000000000000000000000000000000000008152506110b7565b610fa93389611c5f565b610fb38882611c7d565b610fd6604051806060016040528060278152602001613ab9602791398933611cf1565b610fe06007611d90565b7febb98688741ffa4c7589bf325de30cf7becb63de567842e1ccdb6cb949fdc82c3389604051611011929190612cd1565b60405180910390a15050505050505050565b6000600560008473ffffffffffffffffffffffffffffffffffffffff1673ffffffffffffffffffffffffffffffffffffffff16815260200190815260200160002060008373ffffffffffffffffffffffffffffffffffffffff1673ffffffffffffffffffffffffffffffffffffffff16815260200190815260200160002060009054906101000a900460ff16905092915050565b61114d816040516024016110cb9190612d15565b6040516020818303038152906040527f41304fac000000000000000000000000000000000000000000000000000000007bffffffffffffffffffffffffffffffffffffffffffffffffffffffff19166020820180517bffffffffffffffffffffffffffffffffffffffffffffffffffffffff8381831617835250505050611da6565b50565b60007f01ffc9a7000000000000000000000000000000000000000000000000000000007bffffffffffffffffffffffffffffffffffffffffffffffffffffffff1916827bffffffffffffffffffffffffffffffffffffffffffffffffffffffff1916149050919050565b60008073ffffffffffffffffffffffffffffffffffffffff166002600084815260200190815260200160002060009054906101000a900473ffffffffffffffffffffffffffffffffffffffff1673ffffffffffffffffffffffffffffffffffffffff1614159050919050565b600033905090565b816004600083815260200190815260200160002060006101000a81548173ffffffffffffffffffffffffffffffffffffffff021916908373ffffffffffffffffffffffffffffffffffffffff160217905550808273ffffffffffffffffffffffffffffffffffffffff166112a1836106ad565b73ffffffffffffffffffffffffffffffffffffffff167f8c5be1e5ebec7d5bd14f71427d1e84f3dd0314c0f7b2291e5b200ac8c7c3b92560405160405180910390a45050565b60006112f2826111ba565b611331576040517f08c379a000000000000000000000000000000000000000000000000000000000815260040161132890612e15565b60405180910390fd5b600061133c836106ad565b90508073ffffffffffffffffffffffffffffffffffffffff168473ffffffffffffffffffffffffffffffffffffffff16148061137e575061137d8185611023565b5b806113bc57508373ffffffffffffffffffffffffffffffffffffffff166113a484610490565b73ffffffffffffffffffffffffffffffffffffffff16145b91505092915050565b8273ffffffffffffffffffffffffffffffffffffffff166113e5826106ad565b73ffffffffffffffffffffffffffffffffffffffff161461143b576040517f08c379a000000000000000000000000000000000000000000000000000000000815260040161143290612d95565b60405180910390fd5b600073ffffffffffffffffffffffffffffffffffffffff168273ffffffffffffffffffffffffffffffffffffffff1614156114ab576040517f08c379a00000000000000000000000000000000000000000000000000000000081526004016114a290612dd5565b60405180910390fd5b6114b6838383611dcf565b6114c160008261122e565b6001600360008573ffffffffffffffffffffffffffffffffffffffff1673ffffffffffffffffffffffffffffffffffffffff1681526020019081526020016000206000828254611511919061317c565b925050819055506001600360008473ffffffffffffffffffffffffffffffffffffffff1673ffffffffffffffffffffffffffffffffffffffff1681526020019081526020016000206000828254611568919061309b565b92505081905550816002600083815260200190815260200160002060006101000a81548173ffffffffffffffffffffffffffffffffffffffff021916908373ffffffffffffffffffffffffffffffffffffffff160217905550808273ffffffffffffffffffffffffffffffffffffffff168473ffffffffffffffffffffffffffffffffffffffff167fddf252ad1be2c89b69c2b068fc378daa952ba7f163c4a11628f55a4df523b3ef60405160405180910390a4611627838383611dd4565b505050565b60606000821415611674576040518060400160405280600181526020017f300000000000000000000000000000000000000000000000000000000000000081525090506117d4565b600082905060005b600082146116a657808061168f906132c9565b915050600a8261169f91906130f1565b915061167c565b60008167ffffffffffffffff8111156116e8577f4e487b7100000000000000000000000000000000000000000000000000000000600052604160045260246000fd5b6040519080825280601f01601f19166020018201604052801561171a5781602001600182028036833780820191505090505b5090505b600085146117cd57600182611733919061317c565b9150600a856117429190613312565b603061174e919061309b565b60f81b81838151811061178a577f4e487b7100000000000000000000000000000000000000000000000000000000600052603260045260246000fd5b60200101907effffffffffffffffffffffffffffffffffffffffffffffffffffffffffffff1916908160001a905350600a856117c691906130f1565b945061171e565b8093505050505b919050565b6000816040516020016117ec9190612b46565b6040516020818303038152906040528051906020012060001c9050919050565b8173ffffffffffffffffffffffffffffffffffffffff168373ffffffffffffffffffffffffffffffffffffffff16141561187b576040517f08c379a000000000000000000000000000000000000000000000000000000000815260040161187290612df5565b60405180910390fd5b80600560008573ffffffffffffffffffffffffffffffffffffffff1673ffffffffffffffffffffffffffffffffffffffff16815260200190815260200160002060008473ffffffffffffffffffffffffffffffffffffffff1673ffffffffffffffffffffffffffffffffffffffff16815260200190815260200160002060006101000a81548160ff0219169083151502179055508173ffffffffffffffffffffffffffffffffffffffff168373ffffffffffffffffffffffffffffffffffffffff167f17307eab39ab6107e8899845ad3d59bd9653f200f220920489ca2b5937696c318360405161196c9190612cfa565b60405180910390a3505050565b6119848484846113c5565b61199084848484611dd9565b6119cf576040517f08c379a00000000000000000000000000000000000000000000000000000000081526004016119c690612d75565b60405180910390fd5b50505050565b606060405180602001604052806000815250905090565b60606119f7826111ba565b611a36576040517f08c379a0000000000000000000000000000000000000000000000000000000008152600401611a2d90612f15565b60405180910390fd5b6000611a406119d5565b90506000815111611a605760405180602001604052806000815250611a8b565b80611a6a8461162c565b604051602001611a7b929190612b5d565b6040516020818303038152906040525b915050919050565b600081600001549050919050565b60606000825190506000811415611aca5760405180602001604052806000815250915050611c5a565b60006003600283611adb919061309b565b611ae591906130f1565b6004611af19190613122565b90506000602082611b02919061309b565b67ffffffffffffffff811115611b41577f4e487b7100000000000000000000000000000000000000000000000000000000600052604160045260246000fd5b6040519080825280601f01601f191660200182016040528015611b735781602001600182028036833780820191505090505b5090506000604051806060016040528060408152602001613a79604091399050600181016020830160005b86811015611c175760038101905062ffffff818a015116603f8160121c168401518060081b905060ff603f83600c1c1686015116810190508060081b905060ff603f8360061c1686015116810190508060081b905060ff603f831686015116810190508060e01b90508084526004840193505050611b9e565b506003860660018114611c315760028114611c4157611c4c565b613d3d60f01b6002830352611c4c565b603d60f81b60018303525b508484525050819450505050505b919050565b611c79828260405180602001604052806000815250611f70565b5050565b611c86826111ba565b611cc5576040517f08c379a0000000000000000000000000000000000000000000000000000000008152600401611cbc90612e95565b60405180910390fd5b80600660008481526020019081526020016000209080519060200190611cec9291906121c8565b505050565b611d8b838383604051602401611d0993929190612d37565b6040516020818303038152906040527fe3849f79000000000000000000000000000000000000000000000000000000007bffffffffffffffffffffffffffffffffffffffffffffffffffffffff19166020820180517bffffffffffffffffffffffffffffffffffffffffffffffffffffffff8381831617835250505050611da6565b505050565b6001816000016000828254019250508190555050565b60008151905060006a636f6e736f6c652e6c6f679050602083016000808483855afa5050505050565b505050565b505050565b6000611dfa8473ffffffffffffffffffffffffffffffffffffffff16611fcb565b15611f63578373ffffffffffffffffffffffffffffffffffffffff1663150b7a02611e23611226565b8786866040518563ffffffff1660e01b8152600401611e459493929190612c85565b602060405180830381600087803b158015611e5f57600080fd5b505af1925050508015611e9057506040513d601f19601f82011682018060405250810190611e8d9190612624565b60015b611f13573d8060008114611ec0576040519150601f19603f3d011682016040523d82523d6000602084013e611ec5565b606091505b50600081511415611f0b576040517f08c379a0000000000000000000000000000000000000000000000000000000008152600401611f0290612d75565b60405180910390fd5b805181602001fd5b63150b7a0260e01b7bffffffffffffffffffffffffffffffffffffffffffffffffffffffff1916817bffffffffffffffffffffffffffffffffffffffffffffffffffffffff191614915050611f68565b600190505b949350505050565b611f7a8383611fee565b611f876000848484611dd9565b611fc6576040517f08c379a0000000000000000000000000000000000000000000000000000000008152600401611fbd90612d75565b60405180910390fd5b505050565b6000808273ffffffffffffffffffffffffffffffffffffffff163b119050919050565b600073ffffffffffffffffffffffffffffffffffffffff168273ffffffffffffffffffffffffffffffffffffffff16141561205e576040517f08c379a000000000000000000000000000000000000000000000000000000000815260040161205590612eb5565b60405180910390fd5b612067816111ba565b156120a7576040517f08c379a000000000000000000000000000000000000000000000000000000000815260040161209e90612db5565b60405180910390fd5b6120b360008383611dcf565b6001600360008473ffffffffffffffffffffffffffffffffffffffff1673ffffffffffffffffffffffffffffffffffffffff1681526020019081526020016000206000828254612103919061309b565b92505081905550816002600083815260200190815260200160002060006101000a81548173ffffffffffffffffffffffffffffffffffffffff021916908373ffffffffffffffffffffffffffffffffffffffff160217905550808273ffffffffffffffffffffffffffffffffffffffff16600073ffffffffffffffffffffffffffffffffffffffff167fddf252ad1be2c89b69c2b068fc378daa952ba7f163c4a11628f55a4df523b3ef60405160405180910390a46121c460008383611dd4565b5050565b8280546121d490613266565b90600052602060002090601f0160209004810192826121f6576000855561223d565b82601f1061220f57805160ff191683800117855561223d565b8280016001018555821561223d579182015b8281111561223c578251825591602001919060010190612221565b5b50905061224a919061224e565b5090565b5b8082111561226757600081600090555060010161224f565b5090565b600061227e61227984612fb5565b612f90565b9050808382526020820190508285602086028201111561229d57600080fd5b60005b858110156122e757813567ffffffffffffffff8111156122bf57600080fd5b8086016122cc8982612415565b855260208501945060208401935050506001810190506122a0565b5050509392505050565b60006123046122ff84612fe1565b612f90565b90508281526020810184848401111561231c57600080fd5b612327848285613224565b509392505050565b600061234261233d84613012565b612f90565b90508281526020810184848401111561235a57600080fd5b612365848285613224565b509392505050565b60008135905061237c81613a1c565b92915050565b600082601f83011261239357600080fd5b81356123a384826020860161226b565b91505092915050565b6000813590506123bb81613a33565b92915050565b6000813590506123d081613a4a565b92915050565b6000815190506123e581613a4a565b92915050565b600082601f8301126123fc57600080fd5b813561240c8482602086016122f1565b91505092915050565b600082601f83011261242657600080fd5b813561243684826020860161232f565b91505092915050565b60008135905061244e81613a61565b92915050565b60006020828403121561246657600080fd5b60006124748482850161236d565b91505092915050565b6000806040838503121561249057600080fd5b600061249e8582860161236d565b92505060206124af8582860161236d565b9150509250929050565b6000806000606084860312156124ce57600080fd5b60006124dc8682870161236d565b93505060206124ed8682870161236d565b92505060406124fe8682870161243f565b9150509250925092565b6000806000806080858703121561251e57600080fd5b600061252c8782880161236d565b945050602061253d8782880161236d565b935050604061254e8782880161243f565b925050606085013567ffffffffffffffff81111561256b57600080fd5b612577878288016123eb565b91505092959194509250565b6000806040838503121561259657600080fd5b60006125a48582860161236d565b92505060206125b5858286016123ac565b9150509250929050565b600080604083850312156125d257600080fd5b60006125e08582860161236d565b92505060206125f18582860161243f565b9150509250929050565b60006020828403121561260d57600080fd5b600061261b848285016123c1565b91505092915050565b60006020828403121561263657600080fd5b6000612644848285016123d6565b91505092915050565b60006020828403121561265f57600080fd5b600061266d8482850161243f565b91505092915050565b60008060006060848603121561268b57600080fd5b60006126998682870161243f565b935050602084013567ffffffffffffffff8111156126b657600080fd5b6126c286828701612382565b925050604084013567ffffffffffffffff8111156126df57600080fd5b6126eb86828701612415565b9150509250925092565b6126fe816131b0565b82525050565b61270d816131c2565b82525050565b600061271e82613058565b612728818561306e565b9350612738818560208601613233565b612741816133ff565b840191505092915050565b600061275782613063565b612761818561307f565b9350612771818560208601613233565b61277a816133ff565b840191505092915050565b600061279082613063565b61279a8185613090565b93506127aa818560208601613233565b80840191505092915050565b600081546127c381613266565b6127cd8186613090565b945060018216600081146127e857600181146127f95761282c565b60ff1983168652818601935061282c565b61280285613043565b60005b8381101561282457815481890152600182019150602081019050612805565b838801955050505b50505092915050565b6000612842602583613090565b915061284d82613410565b602582019050919050565b600061286560328361307f565b91506128708261345f565b604082019050919050565b600061288860258361307f565b9150612893826134ae565b604082019050919050565b60006128ab601c8361307f565b91506128b6826134fd565b602082019050919050565b60006128ce60248361307f565b91506128d982613526565b604082019050919050565b60006128f160198361307f565b91506128fc82613575565b602082019050919050565b6000612914602c8361307f565b915061291f8261359e565b604082019050919050565b6000612937600d83613090565b9150612942826135ed565b600d82019050919050565b600061295a60388361307f565b915061296582613616565b604082019050919050565b600061297d602a8361307f565b915061298882613665565b604082019050919050565b60006129a060298361307f565b91506129ab826136b4565b604082019050919050565b60006129c3602e8361307f565b91506129ce82613703565b604082019050919050565b60006129e6600283613090565b91506129f182613752565b600282019050919050565b6000612a0960208361307f565b9150612a148261377b565b602082019050919050565b6000612a2c606483613090565b9150612a37826137a4565b606482019050919050565b6000612a4f60318361307f565b9150612a5a8261383f565b604082019050919050565b6000612a72602c8361307f565b9150612a7d8261388e565b604082019050919050565b6000612a95602f8361307f565b9150612aa0826138dd565b604082019050919050565b6000612ab8600a83613090565b9150612ac38261392c565b600a82019050919050565b6000612adb60218361307f565b9150612ae682613955565b604082019050919050565b6000612afe601d83613090565b9150612b09826139a4565b601d82019050919050565b6000612b2160318361307f565b9150612b2c826139cd565b604082019050919050565b612b408161321a565b82525050565b6000612b528284612785565b915081905092915050565b6000612b698285612785565b9150612b758284612785565b91508190509392505050565b6000612b8d8286612785565b9150612b998285612785565b9150612ba58284612785565b9150819050949350505050565b6000612bbe82856127b6565b9150612bca8284612785565b9150612bd58261292a565b91508190509392505050565b6000612bec82612835565b9150612bf88284612785565b915081905092915050565b6000612c0e82612aab565b9150612c1a8285612785565b9150612c2582612a1f565b9150612c318284612785565b9150612c3c826129d9565b91508190509392505050565b6000612c5382612af1565b9150612c5f8284612785565b915081905092915050565b6000602082019050612c7f60008301846126f5565b92915050565b6000608082019050612c9a60008301876126f5565b612ca760208301866126f5565b612cb46040830185612b37565b8181036060830152612cc68184612713565b905095945050505050565b6000604082019050612ce660008301856126f5565b612cf36020830184612b37565b9392505050565b6000602082019050612d0f6000830184612704565b92915050565b60006020820190508181036000830152612d2f818461274c565b905092915050565b60006060820190508181036000830152612d51818661274c565b9050612d606020830185612b37565b612d6d60408301846126f5565b949350505050565b60006020820190508181036000830152612d8e81612858565b9050919050565b60006020820190508181036000830152612dae8161287b565b9050919050565b60006020820190508181036000830152612dce8161289e565b9050919050565b60006020820190508181036000830152612dee816128c1565b9050919050565b60006020820190508181036000830152612e0e816128e4565b9050919050565b60006020820190508181036000830152612e2e81612907565b9050919050565b60006020820190508181036000830152612e4e8161294d565b9050919050565b60006020820190508181036000830152612e6e81612970565b9050919050565b60006020820190508181036000830152612e8e81612993565b9050919050565b60006020820190508181036000830152612eae816129b6565b9050919050565b60006020820190508181036000830152612ece816129fc565b9050919050565b60006020820190508181036000830152612eee81612a42565b9050919050565b60006020820190508181036000830152612f0e81612a65565b9050919050565b60006020820190508181036000830152612f2e81612a88565b9050919050565b60006020820190508181036000830152612f4e81612ace565b9050919050565b60006020820190508181036000830152612f6e81612b14565b9050919050565b6000602082019050612f8a6000830184612b37565b92915050565b6000612f9a612fab565b9050612fa68282613298565b919050565b6000604051905090565b600067ffffffffffffffff821115612fd057612fcf6133d0565b5b602082029050602081019050919050565b600067ffffffffffffffff821115612ffc57612ffb6133d0565b5b613005826133ff565b9050602081019050919050565b600067ffffffffffffffff82111561302d5761302c6133d0565b5b613036826133ff565b9050602081019050919050565b60008190508160005260206000209050919050565b600081519050919050565b600081519050919050565b600082825260208201905092915050565b600082825260208201905092915050565b600081905092915050565b60006130a68261321a565b91506130b18361321a565b9250827fffffffffffffffffffffffffffffffffffffffffffffffffffffffffffffffff038211156130e6576130e5613343565b5b828201905092915050565b60006130fc8261321a565b91506131078361321a565b92508261311757613116613372565b5b828204905092915050565b600061312d8261321a565b91506131388361321a565b9250817fffffffffffffffffffffffffffffffffffffffffffffffffffffffffffffffff048311821515161561317157613170613343565b5b828202905092915050565b60006131878261321a565b91506131928361321a565b9250828210156131a5576131a4613343565b5b828203905092915050565b60006131bb826131fa565b9050919050565b60008115159050919050565b60007fffffffff0000000000000000000000000000000000000000000000000000000082169050919050565b600073ffffffffffffffffffffffffffffffffffffffff82169050919050565b6000819050919050565b82818337600083830152505050565b60005b83811015613251578082015181840152602081019050613236565b83811115613260576000848401525b50505050565b6000600282049050600182168061327e57607f821691505b60208210811415613292576132916133a1565b5b50919050565b6132a1826133ff565b810181811067ffffffffffffffff821117156132c0576132bf6133d0565b5b80604052505050565b60006132d48261321a565b91507fffffffffffffffffffffffffffffffffffffffffffffffffffffffffffffffff82141561330757613306613343565b5b600182019050919050565b600061331d8261321a565b91506133288361321a565b92508261333857613337613372565b5b828206905092915050565b7f4e487b7100000000000000000000000000000000000000000000000000000000600052601160045260246000fd5b7f4e487b7100000000000000000000000000000000000000000000000000000000600052601260045260246000fd5b7f4e487b7100000000000000000000000000000000000000000000000000000000600052602260045260246000fd5b7f4e487b7100000000000000000000000000000000000000000000000000000000600052604160045260246000fd5b6000601f19601f8301169050919050565b7f68747470733a2f2f6e6674707265766965772e30786465762e636f6465732f3f60008201527f636f64653d000000000000000000000000000000000000000000000000000000602082015250565b7f4552433732313a207472616e7366657220746f206e6f6e20455243373231526560008201527f63656976657220696d706c656d656e7465720000000000000000000000000000602082015250565b7f4552433732313a207472616e736665722066726f6d20696e636f72726563742060008201527f6f776e6572000000000000000000000000000000000000000000000000000000602082015250565b7f4552433732313a20746f6b656e20616c7265616479206d696e74656400000000600082015250565b7f4552433732313a207472616e7366657220746f20746865207a65726f2061646460008201527f7265737300000000000000000000000000000000000000000000000000000000602082015250565b7f4552433732313a20617070726f766520746f2063616c6c657200000000000000600082015250565b7f4552433732313a206f70657261746f7220717565727920666f72206e6f6e657860008201527f697374656e7420746f6b656e0000000000000000000000000000000000000000602082015250565b7f3c2f746578743e3c2f7376673e00000000000000000000000000000000000000600082015250565b7f4552433732313a20617070726f76652063616c6c6572206973206e6f74206f7760008201527f6e6572206e6f7220617070726f76656420666f7220616c6c0000000000000000602082015250565b7f4552433732313a2062616c616e636520717565727920666f7220746865207a6560008201527f726f206164647265737300000000000000000000000000000000000000000000602082015250565b7f4552433732313a206f776e657220717565727920666f72206e6f6e657869737460008201527f656e7420746f6b656e0000000000000000000000000000000000000000000000602082015250565b7f45524337323155524953746f726167653a2055524920736574206f66206e6f6e60008201527f6578697374656e7420746f6b656e000000000000000000000000000000000000602082015250565b7f227d000000000000000000000000000000000000000000000000000000000000600082015250565b7f4552433732313a206d696e7420746f20746865207a65726f2061646472657373600082015250565b7f222c20226465736372697074696f6e223a20224120686967686c79206163636c60008201527f61696d656420636f6c6c656374696f6e206f6620737175617265732e222c202260208201527f696d61676522203a2022646174613a696d6167652f7376672b786d6c3b62617360408201527f6536342c00000000000000000000000000000000000000000000000000000000606082015250565b7f45524337323155524953746f726167653a2055524920717565727920666f722060008201527f6e6f6e6578697374656e7420746f6b656e000000000000000000000000000000602082015250565b7f4552433732313a20617070726f76656420717565727920666f72206e6f6e657860008201527f697374656e7420746f6b656e0000000000000000000000000000000000000000602082015250565b7f4552433732314d657461646174613a2055524920717565727920666f72206e6f60008201527f6e6578697374656e7420746f6b656e0000000000000000000000000000000000602082015250565b7f7b226e616d65223a202200000000000000000000000000000000000000000000600082015250565b7f4552433732313a20617070726f76616c20746f2063757272656e74206f776e6560008201527f7200000000000000000000000000000000000000000000000000000000000000602082015250565b7f646174613a6170706c69636174696f6e2f6a736f6e3b6261736536342c000000600082015250565b7f4552433732313a207472616e736665722063616c6c6572206973206e6f74206f60008201527f776e6572206e6f7220617070726f766564000000000000000000000000000000602082015250565b613a25816131b0565b8114613a3057600080fd5b50565b613a3c816131c2565b8114613a4757600080fd5b50565b613a53816131ce565b8114613a5e57600080fd5b50565b613a6a8161321a565b8114613a7557600080fd5b5056fe4142434445464748494a4b4c4d4e4f505152535455565758595a6162636465666768696a6b6c6d6e6f707172737475767778797a303132333435363738392b2f416e204e4654207769746820494420257320686173206265656e206d696e74656420746f202573a264697066735822122052b95fdbdd4eef365802c3f96daaaef3287400c171baf2563ef08aeebf5d37e764736f6c634300080400333c73766720786d6c6e733d27687474703a2f2f7777772e77332e6f72672f323030302f73766727207072657365727665417370656374526174696f3d27784d696e594d696e206d656574272076696577426f783d273020302033353020333530273e3c7374796c653e2e62617365207b2066696c6c3a2077686974653b20666f6e742d66616d696c793a2073657269663b20666f6e742d73697a653a20323470783b207d3c2f7374796c653e3c726563742077696474683d273130302527206865696768743d2731303025272066696c6c3d27626c61636b27202f3e3c7465787420783d273530252720793d273530252720636c6173733d27626173652720646f6d696e616e742d626173656c696e653d276d6964646c652720746578742d616e63686f723d276d6964646c65273e",
    "linkReferences": {},
    "deployedLinkReferences": {}
}