{
    "_format": "hh-sol-artifact-1",
    "contractName": "MyEpicNFT",
    "sourceName": "contracts/MyEpicNFT.sol",
    "abi": [
        {
            "inputs": [],
            "stateMutability": "nonpayable",
            "type": "constructor"
        },
        {
            "anonymous": false,
            "inputs": [
                {
                    "indexed": true,
                    "internalType": "address",
                    "name": "owner",
                    "type": "address"
                },
                {
                    "indexed": true,
                    "internalType": "address",
                    "name": "approved",
                    "type": "address"
                },
                {
                    "indexed": true,
                    "internalType": "uint256",
                    "name": "tokenId",
                    "type": "uint256"
                }
            ],
            "name": "Approval",
            "type": "event"
        },
        {
            "anonymous": false,
            "inputs": [
                {
                    "indexed": true,
                    "internalType": "address",
                    "name": "owner",
                    "type": "address"
                },
                {
                    "indexed": true,
                    "internalType": "address",
                    "name": "operator",
                    "type": "address"
                },
                {
                    "indexed": false,
                    "internalType": "bool",
                    "name": "approved",
                    "type": "bool"
                }
            ],
            "name": "ApprovalForAll",
            "type": "event"
        },
        {
            "anonymous": false,
            "inputs": [
                {
                    "indexed": true,
                    "internalType": "address",
                    "name": "from",
                    "type": "address"
                },
                {
                    "indexed": true,
                    "internalType": "address",
                    "name": "to",
                    "type": "address"
                },
                {
                    "indexed": true,
                    "internalType": "uint256",
                    "name": "tokenId",
                    "type": "uint256"
                }
            ],
            "name": "Transfer",
            "type": "event"
        },
        {
            "inputs": [
                {
                    "internalType": "address",
                    "name": "to",
                    "type": "address"
                },
                {
                    "internalType": "uint256",
                    "name": "tokenId",
                    "type": "uint256"
                }
            ],
            "name": "approve",
            "outputs": [],
            "stateMutability": "nonpayable",
            "type": "function"
        },
        {
            "inputs": [
                {
                    "internalType": "address",
                    "name": "owner",
                    "type": "address"
                }
            ],
            "name": "balanceOf",
            "outputs": [
                {
                    "internalType": "uint256",
                    "name": "",
                    "type": "uint256"
                }
            ],
            "stateMutability": "view",
            "type": "function"
        },
        {
            "inputs": [
                {
                    "internalType": "uint256",
                    "name": "tokenId",
                    "type": "uint256"
                }
            ],
            "name": "getApproved",
            "outputs": [
                {
                    "internalType": "address",
                    "name": "",
                    "type": "address"
                }
            ],
            "stateMutability": "view",
            "type": "function"
        },
        {
            "inputs": [
                {
                    "internalType": "address",
                    "name": "owner",
                    "type": "address"
                },
                {
                    "internalType": "address",
                    "name": "operator",
                    "type": "address"
                }
            ],
            "name": "isApprovedForAll",
            "outputs": [
                {
                    "internalType": "bool",
                    "name": "",
                    "type": "bool"
                }
            ],
            "stateMutability": "view",
            "type": "function"
        },
        {
            "inputs": [],
            "name": "makeAnEpicNFT",
            "outputs": [],
            "stateMutability": "nonpayable",
            "type": "function"
        },
        {
            "inputs": [],
            "name": "name",
            "outputs": [
                {
                    "internalType": "string",
                    "name": "",
                    "type": "string"
                }
            ],
            "stateMutability": "view",
            "type": "function"
        },
        {
            "inputs": [
                {
                    "internalType": "uint256",
                    "name": "tokenId",
                    "type": "uint256"
                }
            ],
            "name": "ownerOf",
            "outputs": [
                {
                    "internalType": "address",
                    "name": "",
                    "type": "address"
                }
            ],
            "stateMutability": "view",
            "type": "function"
        },
        {
            "inputs": [
                {
                    "internalType": "uint256",
                    "name": "tokenId",
                    "type": "uint256"
                },
                {
                    "internalType": "string[]",
                    "name": "words",
                    "type": "string[]"
                },
                {
                    "internalType": "string",
                    "name": "randomWord",
                    "type": "string"
                }
            ],
            "name": "pickRandomWord",
            "outputs": [
                {
                    "internalType": "string",
                    "name": "",
                    "type": "string"
                }
            ],
            "stateMutability": "view",
            "type": "function"
        },
        {
            "inputs": [
                {
                    "internalType": "address",
                    "name": "from",
                    "type": "address"
                },
                {
                    "internalType": "address",
                    "name": "to",
                    "type": "address"
                },
                {
                    "internalType": "uint256",
                    "name": "tokenId",
                    "type": "uint256"
                }
            ],
            "name": "safeTransferFrom",
            "outputs": [],
            "stateMutability": "nonpayable",
            "type": "function"
        },
        {
            "inputs": [
                {
                    "internalType": "address",
                    "name": "from",
                    "type": "address"
                },
                {
                    "internalType": "address",
                    "name": "to",
                    "type": "address"
                },
                {
                    "internalType": "uint256",
                    "name": "tokenId",
                    "type": "uint256"
                },
                {
                    "internalType": "bytes",
                    "name": "_data",
                    "type": "bytes"
                }
            ],
            "name": "safeTransferFrom",
            "outputs": [],
            "stateMutability": "nonpayable",
            "type": "function"
        },
        {
            "inputs": [
                {
                    "internalType": "address",
                    "name": "operator",
                    "type": "address"
                },
                {
                    "internalType": "bool",
                    "name": "approved",
                    "type": "bool"
                }
            ],
            "name": "setApprovalForAll",
            "outputs": [],
            "stateMutability": "nonpayable",
            "type": "function"
        },
        {
            "inputs": [
                {
                    "internalType": "bytes4",
                    "name": "interfaceId",
                    "type": "bytes4"
                }
            ],
            "name": "supportsInterface",
            "outputs": [
                {
                    "internalType": "bool",
                    "name": "",
                    "type": "bool"
                }
            ],
            "stateMutability": "view",
            "type": "function"
        },
        {
            "inputs": [],
            "name": "symbol",
            "outputs": [
                {
                    "internalType": "string",
                    "name": "",
                    "type": "string"
                }
            ],
            "stateMutability": "view",
            "type": "function"
        },
        {
            "inputs": [
                {
                    "internalType": "uint256",
                    "name": "tokenId",
                    "type": "uint256"
                }
            ],
            "name": "tokenURI",
            "outputs": [
                {
                    "internalType": "string",
                    "name": "",
                    "type": "string"
                }
            ],
            "stateMutability": "view",
            "type": "function"
        },
        {
            "inputs": [
                {
                    "internalType": "address",
                    "name": "from",
                    "type": "address"
                },
                {
                    "internalType": "address",
                    "name": "to",
                    "type": "address"
                },
                {
                    "internalType": "uint256",
                    "name": "tokenId",
                    "type": "uint256"
                }
            ],
            "name": "transferFrom",
            "outputs": [],
            "stateMutability": "nonpayable",
            "type": "function"
        }
    ],
    "bytecode": "0x608060405260405180610160016040528061012f81526020016200499b61012f9139600890805190602001906200003892919062000b58565b50604051806101c001604052806040518060400160405280600681526020017f4c6542726f6e000000000000000000000000000000000000000000000000000081525081526020016040518060400160405280600681526020017f447572616e74000000000000000000000000000000000000000000000000000081525081526020016040518060400160405280600581526020017f437572727900000000000000000000000000000000000000000000000000000081525081526020016040518060400160405280600581526020017f4b7972696500000000000000000000000000000000000000000000000000000081525081526020016040518060400160405280600681526020017f4d6f72616e74000000000000000000000000000000000000000000000000000081525081526020016040518060400160405280600d81526020017f416e7465746f6b6f756e6d706f0000000000000000000000000000000000000081525081526020016040518060400160405280600881526020017f54686f6d70736f6e00000000000000000000000000000000000000000000000081525081526020016040518060400160405280600581526020017f506f6f6c6500000000000000000000000000000000000000000000000000000081525081526020016040518060400160405280600681526020017f446f6e636963000000000000000000000000000000000000000000000000000081525081526020016040518060400160405280600681526020017f48617264656e000000000000000000000000000000000000000000000000000081525081526020016040518060400160405280600981526020017f5765737462726f6f6b000000000000000000000000000000000000000000000081525081526020016040518060400160405280600581526020017f446176697300000000000000000000000000000000000000000000000000000081525081526020016040518060400160405280600581526020017f546174756d00000000000000000000000000000000000000000000000000000081525081526020016040518060400160405280600681526020017f4275746c65720000000000000000000000000000000000000000000000000000815250815250600990600e6200038f92919062000be9565b50604051806101a001604052806040518060400160405280600781526020017f466572726172690000000000000000000000000000000000000000000000000081525081526020016040518060400160405280600581526020017f42656e7a6f00000000000000000000000000000000000000000000000000000081525081526020016040518060400160405280600a81526020017f566f6c6b73776167656e0000000000000000000000000000000000000000000081525081526020016040518060400160405280600681526020017f4e697373616e000000000000000000000000000000000000000000000000000081525081526020016040518060400160405280600681526020017f546f796f7461000000000000000000000000000000000000000000000000000081525081526020016040518060400160405280600581526020017f5465736c6100000000000000000000000000000000000000000000000000000081525081526020016040518060400160405280600381526020017f424d57000000000000000000000000000000000000000000000000000000000081525081526020016040518060400160405280600581526020017f486f6e646100000000000000000000000000000000000000000000000000000081525081526020016040518060400160405280600681526020017f50616a65726f000000000000000000000000000000000000000000000000000081525081526020016040518060400160405280600481526020017f4a6565700000000000000000000000000000000000000000000000000000000081525081526020016040518060400160405280600481526020017f417564690000000000000000000000000000000000000000000000000000000081525081526020016040518060400160405280600a81526020017f4d6974737562697368690000000000000000000000000000000000000000000081525081526020016040518060400160405280600681526020017f5375626172750000000000000000000000000000000000000000000000000000815250815250600a90600d620006ab92919062000c50565b506040518061018001604052806040518060400160405280600581526020017f50697a7a6100000000000000000000000000000000000000000000000000000081525081526020016040518060400160405280600681526020017f427572676572000000000000000000000000000000000000000000000000000081525081526020016040518060400160405280600581526020017f436869707300000000000000000000000000000000000000000000000000000081525081526020016040518060400160405280600681526020017f486f74646f67000000000000000000000000000000000000000000000000000081525081526020016040518060400160405280600581526020017f5374616b6500000000000000000000000000000000000000000000000000000081525081526020016040518060400160405280600781526020017f436861706174690000000000000000000000000000000000000000000000000081525081526020016040518060400160405280600781526020017f4d61646f6e646f0000000000000000000000000000000000000000000000000081525081526020016040518060400160405280600781526020017f4d616e64617a690000000000000000000000000000000000000000000000000081525081526020016040518060400160405280600581526020017f5567616c6900000000000000000000000000000000000000000000000000000081525081526020016040518060400160405280600481526020017f526963650000000000000000000000000000000000000000000000000000000081525081526020016040518060400160405280600481526020017f426565660000000000000000000000000000000000000000000000000000000081525081526020016040518060400160405280600481526020017f506f726b00000000000000000000000000000000000000000000000000000000815250815250600b90600c6200098c92919062000cb7565b503480156200099a57600080fd5b506040518060400160405280600981526020017f5371756172654e465400000000000000000000000000000000000000000000008152506040518060400160405280600681526020017f5351554152450000000000000000000000000000000000000000000000000000815250816000908051906020019062000a1f92919062000b58565b50806001908051906020019062000a3892919062000b58565b50505062000a866040518060400160405280601781526020017f54686973206973206d79204e465420636f6e747261637400000000000000000081525062000a8c60201b6200107e1760201c565b62000ed8565b62000b2c8160405160240162000aa3919062000dec565b6040516020818303038152906040527f41304fac000000000000000000000000000000000000000000000000000000007bffffffffffffffffffffffffffffffffffffffffffffffffffffffff19166020820180517bffffffffffffffffffffffffffffffffffffffffffffffffffffffff838183161783525050505062000b2f60201b60201c565b50565b60008151905060006a636f6e736f6c652e6c6f679050602083016000808483855afa5050505050565b82805462000b669062000e62565b90600052602060002090601f01602090048101928262000b8a576000855562000bd6565b82601f1062000ba557805160ff191683800117855562000bd6565b8280016001018555821562000bd6579182015b8281111562000bd557825182559160200191906001019062000bb8565b5b50905062000be5919062000d1e565b5090565b82805482825590600052602060002090810192821562000c3d579160200282015b8281111562000c3c57825182908051906020019062000c2b92919062000b58565b509160200191906001019062000c0a565b5b50905062000c4c919062000d3d565b5090565b82805482825590600052602060002090810192821562000ca4579160200282015b8281111562000ca357825182908051906020019062000c9292919062000b58565b509160200191906001019062000c71565b5b50905062000cb3919062000d3d565b5090565b82805482825590600052602060002090810192821562000d0b579160200282015b8281111562000d0a57825182908051906020019062000cf992919062000b58565b509160200191906001019062000cd8565b5b50905062000d1a919062000d3d565b5090565b5b8082111562000d3957600081600090555060010162000d1f565b5090565b5b8082111562000d61576000818162000d57919062000d65565b5060010162000d3e565b5090565b50805462000d739062000e62565b6000825580601f1062000d87575062000da8565b601f01602090049060005260206000209081019062000da7919062000d1e565b5b50565b600062000db88262000e10565b62000dc4818562000e1b565b935062000dd681856020860162000e2c565b62000de18162000ec7565b840191505092915050565b6000602082019050818103600083015262000e08818462000dab565b905092915050565b600081519050919050565b600082825260208201905092915050565b60005b8381101562000e4c57808201518184015260208101905062000e2f565b8381111562000e5c576000848401525b50505050565b6000600282049050600182168062000e7b57607f821691505b6020821081141562000e925762000e9162000e98565b5b50919050565b7f4e487b7100000000000000000000000000000000000000000000000000000000600052602260045260246000fd5b6000601f19601f8301169050919050565b613ab38062000ee86000396000f3fe608060405234801561001057600080fd5b50600436106100f55760003560e01c806370a0823111610097578063b88d4fde11610066578063b88d4fde14610296578063c87b56dd146102b2578063de9d132f146102e2578063e985e9c5146102ec576100f5565b806370a08231146101fc57806395d89b411461022c578063a0f4312e1461024a578063a22cb4651461027a576100f5565b8063095ea7b3116100d3578063095ea7b31461017857806323b872dd1461019457806342842e0e146101b05780636352211e146101cc576100f5565b806301ffc9a7146100fa57806306fdde031461012a578063081812fc14610148575b600080fd5b610114600480360381019061010f91906125c2565b61031c565b6040516101219190612c98565b60405180910390f35b6101326103fe565b60405161013f9190612cb3565b60405180910390f35b610162600480360381019061015d9190612614565b610490565b60405161016f9190612c31565b60405180910390f35b610192600480360381019061018d9190612586565b610515565b005b6101ae60048036038101906101a99190612480565b61062d565b005b6101ca60048036038101906101c59190612480565b61068d565b005b6101e660048036038101906101e19190612614565b6106ad565b6040516101f39190612c31565b60405180910390f35b6102166004803603810190610211919061241b565b61075f565b6040516102239190612f13565b60405180910390f35b610234610817565b6040516102419190612cb3565b60405180910390f35b610264600480360381019061025f919061263d565b6108a9565b6040516102719190612cb3565b60405180910390f35b610294600480360381019061028f919061254a565b61093b565b005b6102b060048036038101906102ab91906124cf565b610951565b005b6102cc60048036038101906102c79190612614565b6109b3565b6040516102d99190612cb3565b60405180910390f35b6102ea610b05565b005b61030660048036038101906103019190612444565b610fea565b6040516103139190612c98565b60405180910390f35b60007f80ac58cd000000000000000000000000000000000000000000000000000000007bffffffffffffffffffffffffffffffffffffffffffffffffffffffff1916827bffffffffffffffffffffffffffffffffffffffffffffffffffffffff191614806103e757507f5b5e139f000000000000000000000000000000000000000000000000000000007bffffffffffffffffffffffffffffffffffffffffffffffffffffffff1916827bffffffffffffffffffffffffffffffffffffffffffffffffffffffff1916145b806103f757506103f682611117565b5b9050919050565b60606000805461040d90613204565b80601f016020809104026020016040519081016040528092919081815260200182805461043990613204565b80156104865780601f1061045b57610100808354040283529160200191610486565b820191906000526020600020905b81548152906001019060200180831161046957829003601f168201915b5050505050905090565b600061049b82611181565b6104da576040517f08c379a00000000000000000000000000000000000000000000000000000000081526004016104d190612e93565b60405180910390fd5b6004600083815260200190815260200160002060009054906101000a900473ffffffffffffffffffffffffffffffffffffffff169050919050565b6000610520826106ad565b90508073ffffffffffffffffffffffffffffffffffffffff168373ffffffffffffffffffffffffffffffffffffffff161415610591576040517f08c379a000000000000000000000000000000000000000000000000000000000815260040161058890612ed3565b60405180910390fd5b8073ffffffffffffffffffffffffffffffffffffffff166105b06111ed565b73ffffffffffffffffffffffffffffffffffffffff1614806105df57506105de816105d96111ed565b610fea565b5b61061e576040517f08c379a000000000000000000000000000000000000000000000000000000000815260040161061590612dd3565b60405180910390fd5b61062883836111f5565b505050565b61063e6106386111ed565b826112ae565b61067d576040517f08c379a000000000000000000000000000000000000000000000000000000000815260040161067490612ef3565b60405180910390fd5b61068883838361138c565b505050565b6106a883838360405180602001604052806000815250610951565b505050565b6000806002600084815260200190815260200160002060009054906101000a900473ffffffffffffffffffffffffffffffffffffffff169050600073ffffffffffffffffffffffffffffffffffffffff168173ffffffffffffffffffffffffffffffffffffffff161415610756576040517f08c379a000000000000000000000000000000000000000000000000000000000815260040161074d90612e13565b60405180910390fd5b80915050919050565b60008073ffffffffffffffffffffffffffffffffffffffff168273ffffffffffffffffffffffffffffffffffffffff1614156107d0576040517f08c379a00000000000000000000000000000000000000000000000000000000081526004016107c790612df3565b60405180910390fd5b600360008373ffffffffffffffffffffffffffffffffffffffff1673ffffffffffffffffffffffffffffffffffffffff168152602001908152602001600020549050919050565b60606001805461082690613204565b80601f016020809104026020016040519081016040528092919081815260200182805461085290613204565b801561089f5780601f106108745761010080835404028352916020019161089f565b820191906000526020600020905b81548152906001019060200180831161088257829003601f168201915b5050505050905090565b606060006108df836108ba876115f3565b6040516020016108cb929190612b24565b6040516020818303038152906040526117a0565b90508351816108ee91906132b0565b9050838181518110610929577f4e487b7100000000000000000000000000000000000000000000000000000000600052603260045260246000fd5b60200260200101519150509392505050565b61094d6109466111ed565b83836117d3565b5050565b61096261095c6111ed565b836112ae565b6109a1576040517f08c379a000000000000000000000000000000000000000000000000000000000815260040161099890612ef3565b60405180910390fd5b6109ad84848484611940565b50505050565b60606109be82611181565b6109fd576040517f08c379a00000000000000000000000000000000000000000000000000000000081526004016109f490612e73565b60405180910390fd5b6000600660008481526020019081526020016000208054610a1d90613204565b80601f0160208091040260200160405190810160405280929190818152602001828054610a4990613204565b8015610a965780601f10610a6b57610100808354040283529160200191610a96565b820191906000526020600020905b815481529060010190602001808311610a7957829003601f168201915b505050505090506000610aa761199c565b9050600081511415610abd578192505050610b00565b600082511115610af2578082604051602001610ada929190612b24565b60405160208183030381529060405292505050610b00565b610afb846119b3565b925050505b919050565b6000610b116007611a5a565b90506000610c26826009805480602002602001604051908101604052809291908181526020016000905b82821015610be7578382906000526020600020018054610b5a90613204565b80601f0160208091040260200160405190810160405280929190818152602001828054610b8690613204565b8015610bd35780601f10610ba857610100808354040283529160200191610bd3565b820191906000526020600020905b815481529060010190602001808311610bb657829003601f168201915b505050505081526020019060010190610b3b565b505050506040518060400160405280600a81526020017f46495253545f574f5244000000000000000000000000000000000000000000008152506108a9565b90506000610d3b83600a805480602002602001604051908101604052809291908181526020016000905b82821015610cfc578382906000526020600020018054610c6f90613204565b80601f0160208091040260200160405190810160405280929190818152602001828054610c9b90613204565b8015610ce85780601f10610cbd57610100808354040283529160200191610ce8565b820191906000526020600020905b815481529060010190602001808311610ccb57829003601f168201915b505050505081526020019060010190610c50565b505050506040518060400160405280600b81526020017f5345434f4e445f574f52440000000000000000000000000000000000000000008152506108a9565b90506000610e5084600b805480602002602001604051908101604052809291908181526020016000905b82821015610e11578382906000526020600020018054610d8490613204565b80601f0160208091040260200160405190810160405280929190818152602001828054610db090613204565b8015610dfd5780601f10610dd257610100808354040283529160200191610dfd565b820191906000526020600020905b815481529060010190602001808311610de057829003601f168201915b505050505081526020019060010190610d65565b505050506040518060400160405280600a81526020017f54484952445f574f5244000000000000000000000000000000000000000000008152506108a9565b90506000838383604051602001610e6993929190612b48565b60405160208183030381529060405290506000600882604051602001610e90929190612b79565b60405160208183030381529060405290506000610ed583610eb084611a68565b604051602001610ec1929190612bca565b604051602081830303815290604052611a68565b9050600081604051602001610eea9190612c0f565b6040516020818303038152906040529050610f396040518060400160405280600e81526020017f0a2d2d2d2d2d2d2d2d2d2d2d2d2d00000000000000000000000000000000000081525061107e565b610f6181604051602001610f4d9190612ba8565b60405160208183030381529060405261107e565b610f9f6040518060400160405280600e81526020017f2d2d2d2d2d2d2d2d2d2d2d2d2d0a00000000000000000000000000000000000081525061107e565b610fa93389611c26565b610fb38882611c44565b610fd6604051806060016040528060278152602001613a57602791398933611cb8565b610fe06007611d57565b5050505050505050565b6000600560008473ffffffffffffffffffffffffffffffffffffffff1673ffffffffffffffffffffffffffffffffffffffff16815260200190815260200160002060008373ffffffffffffffffffffffffffffffffffffffff1673ffffffffffffffffffffffffffffffffffffffff16815260200190815260200160002060009054906101000a900460ff16905092915050565b611114816040516024016110929190612cb3565b6040516020818303038152906040527f41304fac000000000000000000000000000000000000000000000000000000007bffffffffffffffffffffffffffffffffffffffffffffffffffffffff19166020820180517bffffffffffffffffffffffffffffffffffffffffffffffffffffffff8381831617835250505050611d6d565b50565b60007f01ffc9a7000000000000000000000000000000000000000000000000000000007bffffffffffffffffffffffffffffffffffffffffffffffffffffffff1916827bffffffffffffffffffffffffffffffffffffffffffffffffffffffff1916149050919050565b60008073ffffffffffffffffffffffffffffffffffffffff166002600084815260200190815260200160002060009054906101000a900473ffffffffffffffffffffffffffffffffffffffff1673ffffffffffffffffffffffffffffffffffffffff1614159050919050565b600033905090565b816004600083815260200190815260200160002060006101000a81548173ffffffffffffffffffffffffffffffffffffffff021916908373ffffffffffffffffffffffffffffffffffffffff160217905550808273ffffffffffffffffffffffffffffffffffffffff16611268836106ad565b73ffffffffffffffffffffffffffffffffffffffff167f8c5be1e5ebec7d5bd14f71427d1e84f3dd0314c0f7b2291e5b200ac8c7c3b92560405160405180910390a45050565b60006112b982611181565b6112f8576040517f08c379a00000000000000000000000000000000000000000000000000000000081526004016112ef90612db3565b60405180910390fd5b6000611303836106ad565b90508073ffffffffffffffffffffffffffffffffffffffff168473ffffffffffffffffffffffffffffffffffffffff16148061134557506113448185610fea565b5b8061138357508373ffffffffffffffffffffffffffffffffffffffff1661136b84610490565b73ffffffffffffffffffffffffffffffffffffffff16145b91505092915050565b8273ffffffffffffffffffffffffffffffffffffffff166113ac826106ad565b73ffffffffffffffffffffffffffffffffffffffff1614611402576040517f08c379a00000000000000000000000000000000000000000000000000000000081526004016113f990612d33565b60405180910390fd5b600073ffffffffffffffffffffffffffffffffffffffff168273ffffffffffffffffffffffffffffffffffffffff161415611472576040517f08c379a000000000000000000000000000000000000000000000000000000000815260040161146990612d73565b60405180910390fd5b61147d838383611d96565b6114886000826111f5565b6001600360008573ffffffffffffffffffffffffffffffffffffffff1673ffffffffffffffffffffffffffffffffffffffff16815260200190815260200160002060008282546114d8919061311a565b925050819055506001600360008473ffffffffffffffffffffffffffffffffffffffff1673ffffffffffffffffffffffffffffffffffffffff168152602001908152602001600020600082825461152f9190613039565b92505081905550816002600083815260200190815260200160002060006101000a81548173ffffffffffffffffffffffffffffffffffffffff021916908373ffffffffffffffffffffffffffffffffffffffff160217905550808273ffffffffffffffffffffffffffffffffffffffff168473ffffffffffffffffffffffffffffffffffffffff167fddf252ad1be2c89b69c2b068fc378daa952ba7f163c4a11628f55a4df523b3ef60405160405180910390a46115ee838383611d9b565b505050565b6060600082141561163b576040518060400160405280600181526020017f3000000000000000000000000000000000000000000000000000000000000000815250905061179b565b600082905060005b6000821461166d57808061165690613267565b915050600a82611666919061308f565b9150611643565b60008167ffffffffffffffff8111156116af577f4e487b7100000000000000000000000000000000000000000000000000000000600052604160045260246000fd5b6040519080825280601f01601f1916602001820160405280156116e15781602001600182028036833780820191505090505b5090505b60008514611794576001826116fa919061311a565b9150600a8561170991906132b0565b60306117159190613039565b60f81b818381518110611751577f4e487b7100000000000000000000000000000000000000000000000000000000600052603260045260246000fd5b60200101907effffffffffffffffffffffffffffffffffffffffffffffffffffffffffffff1916908160001a905350600a8561178d919061308f565b94506116e5565b8093505050505b919050565b6000816040516020016117b39190612b0d565b6040516020818303038152906040528051906020012060001c9050919050565b8173ffffffffffffffffffffffffffffffffffffffff168373ffffffffffffffffffffffffffffffffffffffff161415611842576040517f08c379a000000000000000000000000000000000000000000000000000000000815260040161183990612d93565b60405180910390fd5b80600560008573ffffffffffffffffffffffffffffffffffffffff1673ffffffffffffffffffffffffffffffffffffffff16815260200190815260200160002060008473ffffffffffffffffffffffffffffffffffffffff1673ffffffffffffffffffffffffffffffffffffffff16815260200190815260200160002060006101000a81548160ff0219169083151502179055508173ffffffffffffffffffffffffffffffffffffffff168373ffffffffffffffffffffffffffffffffffffffff167f17307eab39ab6107e8899845ad3d59bd9653f200f220920489ca2b5937696c31836040516119339190612c98565b60405180910390a3505050565b61194b84848461138c565b61195784848484611da0565b611996576040517f08c379a000000000000000000000000000000000000000000000000000000000815260040161198d90612d13565b60405180910390fd5b50505050565b606060405180602001604052806000815250905090565b60606119be82611181565b6119fd576040517f08c379a00000000000000000000000000000000000000000000000000000000081526004016119f490612eb3565b60405180910390fd5b6000611a0761199c565b90506000815111611a275760405180602001604052806000815250611a52565b80611a31846115f3565b604051602001611a42929190612b24565b6040516020818303038152906040525b915050919050565b600081600001549050919050565b60606000825190506000811415611a915760405180602001604052806000815250915050611c21565b60006003600283611aa29190613039565b611aac919061308f565b6004611ab891906130c0565b90506000602082611ac99190613039565b67ffffffffffffffff811115611b08577f4e487b7100000000000000000000000000000000000000000000000000000000600052604160045260246000fd5b6040519080825280601f01601f191660200182016040528015611b3a5781602001600182028036833780820191505090505b5090506000604051806060016040528060408152602001613a17604091399050600181016020830160005b86811015611bde5760038101905062ffffff818a015116603f8160121c168401518060081b905060ff603f83600c1c1686015116810190508060081b905060ff603f8360061c1686015116810190508060081b905060ff603f831686015116810190508060e01b90508084526004840193505050611b65565b506003860660018114611bf85760028114611c0857611c13565b613d3d60f01b6002830352611c13565b603d60f81b60018303525b508484525050819450505050505b919050565b611c40828260405180602001604052806000815250611f37565b5050565b611c4d82611181565b611c8c576040517f08c379a0000000000000000000000000000000000000000000000000000000008152600401611c8390612e33565b60405180910390fd5b80600660008481526020019081526020016000209080519060200190611cb392919061218f565b505050565b611d52838383604051602401611cd093929190612cd5565b6040516020818303038152906040527fe3849f79000000000000000000000000000000000000000000000000000000007bffffffffffffffffffffffffffffffffffffffffffffffffffffffff19166020820180517bffffffffffffffffffffffffffffffffffffffffffffffffffffffff8381831617835250505050611d6d565b505050565b6001816000016000828254019250508190555050565b60008151905060006a636f6e736f6c652e6c6f679050602083016000808483855afa5050505050565b505050565b505050565b6000611dc18473ffffffffffffffffffffffffffffffffffffffff16611f92565b15611f2a578373ffffffffffffffffffffffffffffffffffffffff1663150b7a02611dea6111ed565b8786866040518563ffffffff1660e01b8152600401611e0c9493929190612c4c565b602060405180830381600087803b158015611e2657600080fd5b505af1925050508015611e5757506040513d601f19601f82011682018060405250810190611e5491906125eb565b60015b611eda573d8060008114611e87576040519150601f19603f3d011682016040523d82523d6000602084013e611e8c565b606091505b50600081511415611ed2576040517f08c379a0000000000000000000000000000000000000000000000000000000008152600401611ec990612d13565b60405180910390fd5b805181602001fd5b63150b7a0260e01b7bffffffffffffffffffffffffffffffffffffffffffffffffffffffff1916817bffffffffffffffffffffffffffffffffffffffffffffffffffffffff191614915050611f2f565b600190505b949350505050565b611f418383611fb5565b611f4e6000848484611da0565b611f8d576040517f08c379a0000000000000000000000000000000000000000000000000000000008152600401611f8490612d13565b60405180910390fd5b505050565b6000808273ffffffffffffffffffffffffffffffffffffffff163b119050919050565b600073ffffffffffffffffffffffffffffffffffffffff168273ffffffffffffffffffffffffffffffffffffffff161415612025576040517f08c379a000000000000000000000000000000000000000000000000000000000815260040161201c90612e53565b60405180910390fd5b61202e81611181565b1561206e576040517f08c379a000000000000000000000000000000000000000000000000000000000815260040161206590612d53565b60405180910390fd5b61207a60008383611d96565b6001600360008473ffffffffffffffffffffffffffffffffffffffff1673ffffffffffffffffffffffffffffffffffffffff16815260200190815260200160002060008282546120ca9190613039565b92505081905550816002600083815260200190815260200160002060006101000a81548173ffffffffffffffffffffffffffffffffffffffff021916908373ffffffffffffffffffffffffffffffffffffffff160217905550808273ffffffffffffffffffffffffffffffffffffffff16600073ffffffffffffffffffffffffffffffffffffffff167fddf252ad1be2c89b69c2b068fc378daa952ba7f163c4a11628f55a4df523b3ef60405160405180910390a461218b60008383611d9b565b5050565b82805461219b90613204565b90600052602060002090601f0160209004810192826121bd5760008555612204565b82601f106121d657805160ff1916838001178555612204565b82800160010185558215612204579182015b828111156122035782518255916020019190600101906121e8565b5b5090506122119190612215565b5090565b5b8082111561222e576000816000905550600101612216565b5090565b600061224561224084612f53565b612f2e565b9050808382526020820190508285602086028201111561226457600080fd5b60005b858110156122ae57813567ffffffffffffffff81111561228657600080fd5b80860161229389826123dc565b85526020850194506020840193505050600181019050612267565b5050509392505050565b60006122cb6122c684612f7f565b612f2e565b9050828152602081018484840111156122e357600080fd5b6122ee8482856131c2565b509392505050565b600061230961230484612fb0565b612f2e565b90508281526020810184848401111561232157600080fd5b61232c8482856131c2565b509392505050565b600081359050612343816139ba565b92915050565b600082601f83011261235a57600080fd5b813561236a848260208601612232565b91505092915050565b600081359050612382816139d1565b92915050565b600081359050612397816139e8565b92915050565b6000815190506123ac816139e8565b92915050565b600082601f8301126123c357600080fd5b81356123d38482602086016122b8565b91505092915050565b600082601f8301126123ed57600080fd5b81356123fd8482602086016122f6565b91505092915050565b600081359050612415816139ff565b92915050565b60006020828403121561242d57600080fd5b600061243b84828501612334565b91505092915050565b6000806040838503121561245757600080fd5b600061246585828601612334565b925050602061247685828601612334565b9150509250929050565b60008060006060848603121561249557600080fd5b60006124a386828701612334565b93505060206124b486828701612334565b92505060406124c586828701612406565b9150509250925092565b600080600080608085870312156124e557600080fd5b60006124f387828801612334565b945050602061250487828801612334565b935050604061251587828801612406565b925050606085013567ffffffffffffffff81111561253257600080fd5b61253e878288016123b2565b91505092959194509250565b6000806040838503121561255d57600080fd5b600061256b85828601612334565b925050602061257c85828601612373565b9150509250929050565b6000806040838503121561259957600080fd5b60006125a785828601612334565b92505060206125b885828601612406565b9150509250929050565b6000602082840312156125d457600080fd5b60006125e284828501612388565b91505092915050565b6000602082840312156125fd57600080fd5b600061260b8482850161239d565b91505092915050565b60006020828403121561262657600080fd5b600061263484828501612406565b91505092915050565b60008060006060848603121561265257600080fd5b600061266086828701612406565b935050602084013567ffffffffffffffff81111561267d57600080fd5b61268986828701612349565b925050604084013567ffffffffffffffff8111156126a657600080fd5b6126b2868287016123dc565b9150509250925092565b6126c58161314e565b82525050565b6126d481613160565b82525050565b60006126e582612ff6565b6126ef818561300c565b93506126ff8185602086016131d1565b6127088161339d565b840191505092915050565b600061271e82613001565b612728818561301d565b93506127388185602086016131d1565b6127418161339d565b840191505092915050565b600061275782613001565b612761818561302e565b93506127718185602086016131d1565b80840191505092915050565b6000815461278a81613204565b612794818661302e565b945060018216600081146127af57600181146127c0576127f3565b60ff198316865281860193506127f3565b6127c985612fe1565b60005b838110156127eb578154818901526001820191506020810190506127cc565b838801955050505b50505092915050565b600061280960258361302e565b9150612814826133ae565b602582019050919050565b600061282c60328361301d565b9150612837826133fd565b604082019050919050565b600061284f60258361301d565b915061285a8261344c565b604082019050919050565b6000612872601c8361301d565b915061287d8261349b565b602082019050919050565b600061289560248361301d565b91506128a0826134c4565b604082019050919050565b60006128b860198361301d565b91506128c382613513565b602082019050919050565b60006128db602c8361301d565b91506128e68261353c565b604082019050919050565b60006128fe600d8361302e565b91506129098261358b565b600d82019050919050565b600061292160388361301d565b915061292c826135b4565b604082019050919050565b6000612944602a8361301d565b915061294f82613603565b604082019050919050565b600061296760298361301d565b915061297282613652565b604082019050919050565b600061298a602e8361301d565b9150612995826136a1565b604082019050919050565b60006129ad60028361302e565b91506129b8826136f0565b600282019050919050565b60006129d060208361301d565b91506129db82613719565b602082019050919050565b60006129f360648361302e565b91506129fe82613742565b606482019050919050565b6000612a1660318361301d565b9150612a21826137dd565b604082019050919050565b6000612a39602c8361301d565b9150612a448261382c565b604082019050919050565b6000612a5c602f8361301d565b9150612a678261387b565b604082019050919050565b6000612a7f600a8361302e565b9150612a8a826138ca565b600a82019050919050565b6000612aa260218361301d565b9150612aad826138f3565b604082019050919050565b6000612ac5601d8361302e565b9150612ad082613942565b601d82019050919050565b6000612ae860318361301d565b9150612af38261396b565b604082019050919050565b612b07816131b8565b82525050565b6000612b19828461274c565b915081905092915050565b6000612b30828561274c565b9150612b3c828461274c565b91508190509392505050565b6000612b54828661274c565b9150612b60828561274c565b9150612b6c828461274c565b9150819050949350505050565b6000612b85828561277d565b9150612b91828461274c565b9150612b9c826128f1565b91508190509392505050565b6000612bb3826127fc565b9150612bbf828461274c565b915081905092915050565b6000612bd582612a72565b9150612be1828561274c565b9150612bec826129e6565b9150612bf8828461274c565b9150612c03826129a0565b91508190509392505050565b6000612c1a82612ab8565b9150612c26828461274c565b915081905092915050565b6000602082019050612c4660008301846126bc565b92915050565b6000608082019050612c6160008301876126bc565b612c6e60208301866126bc565b612c7b6040830185612afe565b8181036060830152612c8d81846126da565b905095945050505050565b6000602082019050612cad60008301846126cb565b92915050565b60006020820190508181036000830152612ccd8184612713565b905092915050565b60006060820190508181036000830152612cef8186612713565b9050612cfe6020830185612afe565b612d0b60408301846126bc565b949350505050565b60006020820190508181036000830152612d2c8161281f565b9050919050565b60006020820190508181036000830152612d4c81612842565b9050919050565b60006020820190508181036000830152612d6c81612865565b9050919050565b60006020820190508181036000830152612d8c81612888565b9050919050565b60006020820190508181036000830152612dac816128ab565b9050919050565b60006020820190508181036000830152612dcc816128ce565b9050919050565b60006020820190508181036000830152612dec81612914565b9050919050565b60006020820190508181036000830152612e0c81612937565b9050919050565b60006020820190508181036000830152612e2c8161295a565b9050919050565b60006020820190508181036000830152612e4c8161297d565b9050919050565b60006020820190508181036000830152612e6c816129c3565b9050919050565b60006020820190508181036000830152612e8c81612a09565b9050919050565b60006020820190508181036000830152612eac81612a2c565b9050919050565b60006020820190508181036000830152612ecc81612a4f565b9050919050565b60006020820190508181036000830152612eec81612a95565b9050919050565b60006020820190508181036000830152612f0c81612adb565b9050919050565b6000602082019050612f286000830184612afe565b92915050565b6000612f38612f49565b9050612f448282613236565b919050565b6000604051905090565b600067ffffffffffffffff821115612f6e57612f6d61336e565b5b602082029050602081019050919050565b600067ffffffffffffffff821115612f9a57612f9961336e565b5b612fa38261339d565b9050602081019050919050565b600067ffffffffffffffff821115612fcb57612fca61336e565b5b612fd48261339d565b9050602081019050919050565b60008190508160005260206000209050919050565b600081519050919050565b600081519050919050565b600082825260208201905092915050565b600082825260208201905092915050565b600081905092915050565b6000613044826131b8565b915061304f836131b8565b9250827fffffffffffffffffffffffffffffffffffffffffffffffffffffffffffffffff03821115613084576130836132e1565b5b828201905092915050565b600061309a826131b8565b91506130a5836131b8565b9250826130b5576130b4613310565b5b828204905092915050565b60006130cb826131b8565b91506130d6836131b8565b9250817fffffffffffffffffffffffffffffffffffffffffffffffffffffffffffffffff048311821515161561310f5761310e6132e1565b5b828202905092915050565b6000613125826131b8565b9150613130836131b8565b925082821015613143576131426132e1565b5b828203905092915050565b600061315982613198565b9050919050565b60008115159050919050565b60007fffffffff0000000000000000000000000000000000000000000000000000000082169050919050565b600073ffffffffffffffffffffffffffffffffffffffff82169050919050565b6000819050919050565b82818337600083830152505050565b60005b838110156131ef5780820151818401526020810190506131d4565b838111156131fe576000848401525b50505050565b6000600282049050600182168061321c57607f821691505b602082108114156132305761322f61333f565b5b50919050565b61323f8261339d565b810181811067ffffffffffffffff8211171561325e5761325d61336e565b5b80604052505050565b6000613272826131b8565b91507fffffffffffffffffffffffffffffffffffffffffffffffffffffffffffffffff8214156132a5576132a46132e1565b5b600182019050919050565b60006132bb826131b8565b91506132c6836131b8565b9250826132d6576132d5613310565b5b828206905092915050565b7f4e487b7100000000000000000000000000000000000000000000000000000000600052601160045260246000fd5b7f4e487b7100000000000000000000000000000000000000000000000000000000600052601260045260246000fd5b7f4e487b7100000000000000000000000000000000000000000000000000000000600052602260045260246000fd5b7f4e487b7100000000000000000000000000000000000000000000000000000000600052604160045260246000fd5b6000601f19601f8301169050919050565b7f68747470733a2f2f6e6674707265766965772e30786465762e636f6465732f3f60008201527f636f64653d000000000000000000000000000000000000000000000000000000602082015250565b7f4552433732313a207472616e7366657220746f206e6f6e20455243373231526560008201527f63656976657220696d706c656d656e7465720000000000000000000000000000602082015250565b7f4552433732313a207472616e736665722066726f6d20696e636f72726563742060008201527f6f776e6572000000000000000000000000000000000000000000000000000000602082015250565b7f4552433732313a20746f6b656e20616c7265616479206d696e74656400000000600082015250565b7f4552433732313a207472616e7366657220746f20746865207a65726f2061646460008201527f7265737300000000000000000000000000000000000000000000000000000000602082015250565b7f4552433732313a20617070726f766520746f2063616c6c657200000000000000600082015250565b7f4552433732313a206f70657261746f7220717565727920666f72206e6f6e657860008201527f697374656e7420746f6b656e0000000000000000000000000000000000000000602082015250565b7f3c2f746578743e3c2f7376673e00000000000000000000000000000000000000600082015250565b7f4552433732313a20617070726f76652063616c6c6572206973206e6f74206f7760008201527f6e6572206e6f7220617070726f76656420666f7220616c6c0000000000000000602082015250565b7f4552433732313a2062616c616e636520717565727920666f7220746865207a6560008201527f726f206164647265737300000000000000000000000000000000000000000000602082015250565b7f4552433732313a206f776e657220717565727920666f72206e6f6e657869737460008201527f656e7420746f6b656e0000000000000000000000000000000000000000000000602082015250565b7f45524337323155524953746f726167653a2055524920736574206f66206e6f6e60008201527f6578697374656e7420746f6b656e000000000000000000000000000000000000602082015250565b7f227d000000000000000000000000000000000000000000000000000000000000600082015250565b7f4552433732313a206d696e7420746f20746865207a65726f2061646472657373600082015250565b7f222c20226465736372697074696f6e223a20224120686967686c79206163636c60008201527f61696d656420636f6c6c656374696f6e206f6620737175617265732e222c202260208201527f696d61676522203a2022646174613a696d6167652f7376672b786d6c3b62617360408201527f6536342c00000000000000000000000000000000000000000000000000000000606082015250565b7f45524337323155524953746f726167653a2055524920717565727920666f722060008201527f6e6f6e6578697374656e7420746f6b656e000000000000000000000000000000602082015250565b7f4552433732313a20617070726f76656420717565727920666f72206e6f6e657860008201527f697374656e7420746f6b656e0000000000000000000000000000000000000000602082015250565b7f4552433732314d657461646174613a2055524920717565727920666f72206e6f60008201527f6e6578697374656e7420746f6b656e0000000000000000000000000000000000602082015250565b7f7b226e616d65223a202200000000000000000000000000000000000000000000600082015250565b7f4552433732313a20617070726f76616c20746f2063757272656e74206f776e6560008201527f7200000000000000000000000000000000000000000000000000000000000000602082015250565b7f646174613a6170706c69636174696f6e2f6a736f6e3b6261736536342c000000600082015250565b7f4552433732313a207472616e736665722063616c6c6572206973206e6f74206f60008201527f776e6572206e6f7220617070726f766564000000000000000000000000000000602082015250565b6139c38161314e565b81146139ce57600080fd5b50565b6139da81613160565b81146139e557600080fd5b50565b6139f18161316c565b81146139fc57600080fd5b50565b613a08816131b8565b8114613a1357600080fd5b5056fe4142434445464748494a4b4c4d4e4f505152535455565758595a6162636465666768696a6b6c6d6e6f707172737475767778797a303132333435363738392b2f416e204e4654207769746820494420257320686173206265656e206d696e74656420746f202573a26469706673582212200d4742e2bf9e5a5bf29135dab04d115f488210af5714aba8218e83816988601b64736f6c634300080400333c73766720786d6c6e733d27687474703a2f2f7777772e77332e6f72672f323030302f73766727207072657365727665417370656374526174696f3d27784d696e594d696e206d656574272076696577426f783d273020302033353020333530273e3c7374796c653e2e62617365207b2066696c6c3a2077686974653b20666f6e742d66616d696c793a2073657269663b20666f6e742d73697a653a20323470783b207d3c2f7374796c653e3c726563742077696474683d273130302527206865696768743d2731303025272066696c6c3d27626c61636b27202f3e3c7465787420783d273530252720793d273530252720636c6173733d27626173652720646f6d696e616e742d626173656c696e653d276d6964646c652720746578742d616e63686f723d276d6964646c65273e",
    "linkReferences": {},
    "deployedLinkReferences": {}
}